{
  "contractName": "PublicResolver",
  "abi": [
    {
      "inputs": [
        {
          "internalType": "contract ENS",
          "name": "_ens",
          "type": "address"
        }
      ],
      "payable": false,
      "stateMutability": "nonpayable",
      "type": "constructor"
    },
    {
      "anonymous": false,
      "inputs": [
        {
          "indexed": true,
          "internalType": "bytes32",
          "name": "node",
          "type": "bytes32"
        },
        {
          "indexed": true,
          "internalType": "uint256",
          "name": "contentType",
          "type": "uint256"
        }
      ],
      "name": "ABIChanged",
      "type": "event"
    },
    {
      "anonymous": false,
      "inputs": [
        {
          "indexed": true,
          "internalType": "bytes32",
          "name": "node",
          "type": "bytes32"
        },
        {
          "indexed": false,
          "internalType": "address",
          "name": "a",
          "type": "address"
        }
      ],
      "name": "AddrChanged",
      "type": "event"
    },
    {
      "anonymous": false,
      "inputs": [
        {
          "indexed": true,
          "internalType": "bytes32",
          "name": "node",
          "type": "bytes32"
        },
        {
          "indexed": false,
          "internalType": "uint256",
          "name": "coinType",
          "type": "uint256"
        },
        {
          "indexed": false,
          "internalType": "bytes",
          "name": "newAddress",
          "type": "bytes"
        }
      ],
      "name": "AddressChanged",
      "type": "event"
    },
    {
      "anonymous": false,
      "inputs": [
        {
          "indexed": true,
          "internalType": "bytes32",
          "name": "node",
          "type": "bytes32"
        },
        {
          "indexed": true,
          "internalType": "address",
          "name": "owner",
          "type": "address"
        },
        {
          "indexed": true,
          "internalType": "address",
          "name": "target",
          "type": "address"
        },
        {
          "indexed": false,
          "internalType": "bool",
          "name": "isAuthorised",
          "type": "bool"
        }
      ],
      "name": "AuthorisationChanged",
      "type": "event"
    },
    {
      "anonymous": false,
      "inputs": [
        {
          "indexed": true,
          "internalType": "bytes32",
          "name": "node",
          "type": "bytes32"
        },
        {
          "indexed": false,
          "internalType": "bytes",
          "name": "hash",
          "type": "bytes"
        }
      ],
      "name": "ContenthashChanged",
      "type": "event"
    },
    {
      "anonymous": false,
      "inputs": [
        {
          "indexed": true,
          "internalType": "bytes32",
          "name": "node",
          "type": "bytes32"
        },
        {
          "indexed": false,
          "internalType": "bytes",
          "name": "name",
          "type": "bytes"
        },
        {
          "indexed": false,
          "internalType": "uint16",
          "name": "resource",
          "type": "uint16"
        },
        {
          "indexed": false,
          "internalType": "bytes",
          "name": "record",
          "type": "bytes"
        }
      ],
      "name": "DNSRecordChanged",
      "type": "event"
    },
    {
      "anonymous": false,
      "inputs": [
        {
          "indexed": true,
          "internalType": "bytes32",
          "name": "node",
          "type": "bytes32"
        },
        {
          "indexed": false,
          "internalType": "bytes",
          "name": "name",
          "type": "bytes"
        },
        {
          "indexed": false,
          "internalType": "uint16",
          "name": "resource",
          "type": "uint16"
        }
      ],
      "name": "DNSRecordDeleted",
      "type": "event"
    },
    {
      "anonymous": false,
      "inputs": [
        {
          "indexed": true,
          "internalType": "bytes32",
          "name": "node",
          "type": "bytes32"
        }
      ],
      "name": "DNSZoneCleared",
      "type": "event"
    },
    {
      "anonymous": false,
      "inputs": [
        {
          "indexed": true,
          "internalType": "bytes32",
          "name": "node",
          "type": "bytes32"
        },
        {
          "indexed": false,
          "internalType": "string",
          "name": "geohash",
          "type": "string"
        },
        {
          "indexed": false,
          "internalType": "address",
          "name": "addr",
          "type": "address"
        }
      ],
      "name": "GeoENSRecordChanged",
      "type": "event"
    },
    {
      "anonymous": false,
      "inputs": [
        {
          "indexed": true,
          "internalType": "bytes32",
          "name": "node",
          "type": "bytes32"
        },
        {
          "indexed": true,
          "internalType": "bytes4",
          "name": "interfaceID",
          "type": "bytes4"
        },
        {
          "indexed": false,
          "internalType": "address",
          "name": "implementer",
          "type": "address"
        }
      ],
      "name": "InterfaceChanged",
      "type": "event"
    },
    {
      "anonymous": false,
      "inputs": [
        {
          "indexed": true,
          "internalType": "bytes32",
          "name": "node",
          "type": "bytes32"
        },
        {
          "indexed": false,
          "internalType": "string",
          "name": "name",
          "type": "string"
        }
      ],
      "name": "NameChanged",
      "type": "event"
    },
    {
      "anonymous": false,
      "inputs": [
        {
          "indexed": true,
          "internalType": "bytes32",
          "name": "node",
          "type": "bytes32"
        },
        {
          "indexed": false,
          "internalType": "bytes32",
          "name": "x",
          "type": "bytes32"
        },
        {
          "indexed": false,
          "internalType": "bytes32",
          "name": "y",
          "type": "bytes32"
        }
      ],
      "name": "PubkeyChanged",
      "type": "event"
    },
    {
      "anonymous": false,
      "inputs": [
        {
          "indexed": true,
          "internalType": "bytes32",
          "name": "node",
          "type": "bytes32"
        },
        {
          "indexed": true,
          "internalType": "string",
          "name": "indexedKey",
          "type": "string"
        },
        {
          "indexed": false,
          "internalType": "string",
          "name": "key",
          "type": "string"
        }
      ],
      "name": "TextChanged",
      "type": "event"
    },
    {
      "constant": true,
      "inputs": [
        {
          "internalType": "bytes32",
          "name": "node",
          "type": "bytes32"
        },
        {
          "internalType": "uint256",
          "name": "contentTypes",
          "type": "uint256"
        }
      ],
      "name": "ABI",
      "outputs": [
        {
          "internalType": "uint256",
          "name": "",
          "type": "uint256"
        },
        {
          "internalType": "bytes",
          "name": "",
          "type": "bytes"
        }
      ],
      "payable": false,
      "stateMutability": "view",
      "type": "function"
    },
    {
      "constant": true,
      "inputs": [
        {
          "internalType": "bytes32",
          "name": "node",
          "type": "bytes32"
        }
      ],
      "name": "addr",
      "outputs": [
        {
          "internalType": "address payable",
          "name": "",
          "type": "address"
        }
      ],
      "payable": false,
      "stateMutability": "view",
      "type": "function"
    },
    {
      "constant": true,
      "inputs": [
        {
          "internalType": "bytes32",
          "name": "node",
          "type": "bytes32"
        },
        {
          "internalType": "uint256",
          "name": "coinType",
          "type": "uint256"
        }
      ],
      "name": "addr",
      "outputs": [
        {
          "internalType": "bytes",
          "name": "",
          "type": "bytes"
        }
      ],
      "payable": false,
      "stateMutability": "view",
      "type": "function"
    },
    {
      "constant": true,
      "inputs": [
        {
          "internalType": "bytes32",
          "name": "",
          "type": "bytes32"
        },
        {
          "internalType": "address",
          "name": "",
          "type": "address"
        },
        {
          "internalType": "address",
          "name": "",
          "type": "address"
        }
      ],
      "name": "authorisations",
      "outputs": [
        {
          "internalType": "bool",
          "name": "",
          "type": "bool"
        }
      ],
      "payable": false,
      "stateMutability": "view",
      "type": "function"
    },
    {
      "constant": false,
      "inputs": [
        {
          "internalType": "bytes32",
          "name": "node",
          "type": "bytes32"
        }
      ],
      "name": "clearDNSZone",
      "outputs": [],
      "payable": false,
      "stateMutability": "nonpayable",
      "type": "function"
    },
    {
      "constant": true,
      "inputs": [
        {
          "internalType": "bytes32",
          "name": "node",
          "type": "bytes32"
        }
      ],
      "name": "contenthash",
      "outputs": [
        {
          "internalType": "bytes",
          "name": "",
          "type": "bytes"
        }
      ],
      "payable": false,
      "stateMutability": "view",
      "type": "function"
    },
    {
      "constant": true,
      "inputs": [
        {
          "internalType": "bytes32",
          "name": "node",
          "type": "bytes32"
        },
        {
          "internalType": "bytes32",
          "name": "name",
          "type": "bytes32"
        },
        {
          "internalType": "uint16",
          "name": "resource",
          "type": "uint16"
        }
      ],
      "name": "dnsRecord",
      "outputs": [
        {
          "internalType": "bytes",
          "name": "",
          "type": "bytes"
        }
      ],
      "payable": false,
      "stateMutability": "view",
      "type": "function"
    },
    {
      "constant": true,
      "inputs": [
        {
          "internalType": "bytes32",
          "name": "node",
          "type": "bytes32"
        },
        {
          "internalType": "string",
          "name": "geohash",
          "type": "string"
        }
      ],
      "name": "geoAddr",
      "outputs": [
        {
          "internalType": "address[]",
          "name": "ret",
          "type": "address[]"
        }
      ],
      "payable": false,
      "stateMutability": "view",
      "type": "function"
    },
    {
      "constant": true,
      "inputs": [
        {
          "internalType": "bytes32",
          "name": "node",
          "type": "bytes32"
        },
        {
          "internalType": "bytes32",
          "name": "name",
          "type": "bytes32"
        }
      ],
      "name": "hasDNSRecords",
      "outputs": [
        {
          "internalType": "bool",
          "name": "",
          "type": "bool"
        }
      ],
      "payable": false,
      "stateMutability": "view",
      "type": "function"
    },
    {
      "constant": true,
      "inputs": [
        {
          "internalType": "bytes32",
          "name": "node",
          "type": "bytes32"
        },
        {
          "internalType": "bytes4",
          "name": "interfaceID",
          "type": "bytes4"
        }
      ],
      "name": "interfaceImplementer",
      "outputs": [
        {
          "internalType": "address",
          "name": "",
          "type": "address"
        }
      ],
      "payable": false,
      "stateMutability": "view",
      "type": "function"
    },
    {
      "constant": true,
      "inputs": [
        {
          "internalType": "bytes32",
          "name": "node",
          "type": "bytes32"
        }
      ],
      "name": "name",
      "outputs": [
        {
          "internalType": "string",
          "name": "",
          "type": "string"
        }
      ],
      "payable": false,
      "stateMutability": "view",
      "type": "function"
    },
    {
      "constant": true,
      "inputs": [
        {
          "internalType": "bytes32",
          "name": "node",
          "type": "bytes32"
        }
      ],
      "name": "pubkey",
      "outputs": [
        {
          "internalType": "bytes32",
          "name": "x",
          "type": "bytes32"
        },
        {
          "internalType": "bytes32",
          "name": "y",
          "type": "bytes32"
        }
      ],
      "payable": false,
      "stateMutability": "view",
      "type": "function"
    },
    {
      "constant": false,
      "inputs": [
        {
          "internalType": "bytes32",
          "name": "node",
          "type": "bytes32"
        },
        {
          "internalType": "uint256",
          "name": "contentType",
          "type": "uint256"
        },
        {
          "internalType": "bytes",
          "name": "data",
          "type": "bytes"
        }
      ],
      "name": "setABI",
      "outputs": [],
      "payable": false,
      "stateMutability": "nonpayable",
      "type": "function"
    },
    {
      "constant": false,
      "inputs": [
        {
          "internalType": "bytes32",
          "name": "node",
          "type": "bytes32"
        },
        {
          "internalType": "uint256",
          "name": "coinType",
          "type": "uint256"
        },
        {
          "internalType": "bytes",
          "name": "a",
          "type": "bytes"
        }
      ],
      "name": "setAddr",
      "outputs": [],
      "payable": false,
      "stateMutability": "nonpayable",
      "type": "function"
    },
    {
      "constant": false,
      "inputs": [
        {
          "internalType": "bytes32",
          "name": "node",
          "type": "bytes32"
        },
        {
          "internalType": "address",
          "name": "a",
          "type": "address"
        }
      ],
      "name": "setAddr",
      "outputs": [],
      "payable": false,
      "stateMutability": "nonpayable",
      "type": "function"
    },
    {
      "constant": false,
      "inputs": [
        {
          "internalType": "bytes32",
          "name": "node",
          "type": "bytes32"
        },
        {
          "internalType": "bytes",
          "name": "hash",
          "type": "bytes"
        }
      ],
      "name": "setContenthash",
      "outputs": [],
      "payable": false,
      "stateMutability": "nonpayable",
      "type": "function"
    },
    {
      "constant": false,
      "inputs": [
        {
          "internalType": "bytes32",
          "name": "node",
          "type": "bytes32"
        },
        {
          "internalType": "bytes",
          "name": "data",
          "type": "bytes"
        }
      ],
      "name": "setDNSRecords",
      "outputs": [],
      "payable": false,
      "stateMutability": "nonpayable",
      "type": "function"
    },
    {
      "constant": false,
      "inputs": [
        {
          "internalType": "bytes32",
          "name": "node",
          "type": "bytes32"
        },
        {
          "internalType": "string",
          "name": "geohash",
          "type": "string"
        },
        {
          "internalType": "address",
          "name": "addr",
          "type": "address"
        }
      ],
      "name": "setGeoAddr",
      "outputs": [],
      "payable": false,
      "stateMutability": "nonpayable",
      "type": "function"
    },
    {
      "constant": false,
      "inputs": [
        {
          "internalType": "bytes32",
          "name": "node",
          "type": "bytes32"
        },
        {
          "internalType": "bytes4",
          "name": "interfaceID",
          "type": "bytes4"
        },
        {
          "internalType": "address",
          "name": "implementer",
          "type": "address"
        }
      ],
      "name": "setInterface",
      "outputs": [],
      "payable": false,
      "stateMutability": "nonpayable",
      "type": "function"
    },
    {
      "constant": false,
      "inputs": [
        {
          "internalType": "bytes32",
          "name": "node",
          "type": "bytes32"
        },
        {
          "internalType": "string",
          "name": "name",
          "type": "string"
        }
      ],
      "name": "setName",
      "outputs": [],
      "payable": false,
      "stateMutability": "nonpayable",
      "type": "function"
    },
    {
      "constant": false,
      "inputs": [
        {
          "internalType": "bytes32",
          "name": "node",
          "type": "bytes32"
        },
        {
          "internalType": "bytes32",
          "name": "x",
          "type": "bytes32"
        },
        {
          "internalType": "bytes32",
          "name": "y",
          "type": "bytes32"
        }
      ],
      "name": "setPubkey",
      "outputs": [],
      "payable": false,
      "stateMutability": "nonpayable",
      "type": "function"
    },
    {
      "constant": false,
      "inputs": [
        {
          "internalType": "bytes32",
          "name": "node",
          "type": "bytes32"
        },
        {
          "internalType": "string",
          "name": "key",
          "type": "string"
        },
        {
          "internalType": "string",
          "name": "value",
          "type": "string"
        }
      ],
      "name": "setText",
      "outputs": [],
      "payable": false,
      "stateMutability": "nonpayable",
      "type": "function"
    },
    {
      "constant": true,
      "inputs": [
        {
          "internalType": "bytes4",
          "name": "interfaceID",
          "type": "bytes4"
        }
      ],
      "name": "supportsInterface",
      "outputs": [
        {
          "internalType": "bool",
          "name": "",
          "type": "bool"
        }
      ],
      "payable": false,
      "stateMutability": "pure",
      "type": "function"
    },
    {
      "constant": true,
      "inputs": [
        {
          "internalType": "bytes32",
          "name": "node",
          "type": "bytes32"
        },
        {
          "internalType": "string",
          "name": "key",
          "type": "string"
        }
      ],
      "name": "text",
      "outputs": [
        {
          "internalType": "string",
          "name": "",
          "type": "string"
        }
      ],
      "payable": false,
      "stateMutability": "view",
      "type": "function"
    },
    {
      "constant": false,
      "inputs": [
        {
          "internalType": "bytes32",
          "name": "node",
          "type": "bytes32"
        },
        {
          "internalType": "address",
          "name": "target",
          "type": "address"
        },
        {
          "internalType": "bool",
          "name": "isAuthorised",
          "type": "bool"
        }
      ],
      "name": "setAuthorisation",
      "outputs": [],
      "payable": false,
      "stateMutability": "nonpayable",
      "type": "function"
    },
    {
      "constant": false,
      "inputs": [
        {
          "internalType": "bytes[]",
          "name": "data",
          "type": "bytes[]"
        }
      ],
      "name": "multicall",
      "outputs": [
        {
          "internalType": "bytes[]",
          "name": "results",
          "type": "bytes[]"
        }
      ],
      "payable": false,
      "stateMutability": "nonpayable",
      "type": "function"
    }
  ],
  "bytecode": "0x60806040523480156200001157600080fd5b50604051620044c1380380620044c1833981810160405262000037919081019062000096565b80600b60006101000a81548173ffffffffffffffffffffffffffffffffffffffff021916908373ffffffffffffffffffffffffffffffffffffffff1602179055505062000124565b60008151905062000090816200010a565b92915050565b600060208284031215620000a957600080fd5b6000620000b9848285016200007f565b91505092915050565b6000620000cf82620000ea565b9050919050565b6000620000e382620000c2565b9050919050565b600073ffffffffffffffffffffffffffffffffffffffff82169050919050565b6200011581620000d6565b81146200012157600080fd5b50565b61438d80620001346000396000f3fe608060405234801561001057600080fd5b506004361061018e5760003560e01c8063691f3431116100de578063bc1c58d111610097578063e2a538db11610071578063e2a538db146104d9578063e59d895d14610509578063f1cb7e0614610525578063f86bc879146105555761018e565b8063bc1c58d11461045c578063c86902331461048c578063d5fa2b00146104bd5761018e565b8063691f34311461037857806377372213146103a85780638b95dd71146103c4578063a8fa5682146103e0578063ac9650d814610410578063ad5780af146104405761018e565b8063304e6ade1161014b57806340c629851161012557806340c62985146102e05780634cbf6ba4146102fc57806359d1d43c1461032c578063623195b01461035c5761018e565b8063304e6ade146102785780633b3b57de146102945780633e9ce794146102c45761018e565b806301ffc9a7146101935780630af179d7146101c357806310f13a8c146101df578063124a319c146101fb5780632203ab561461022b57806329cd62ea1461025c575b600080fd5b6101ad60048036036101a891908101906139ff565b610585565b6040516101ba9190613e87565b60405180910390f35b6101dd60048036036101d8919081019061374b565b6105e6565b005b6101f960048036036101f49190810190613867565b610814565b005b610215600480360361021091908101906136c0565b6108c2565b6040516102229190613df2565b60405180910390f35b610245600480360361024091908101906138f0565b610cad565b604051610253929190614034565b60405180910390f35b61027660048036036102719190810190613622565b610dfc565b005b610292600480360361028d919081019061374b565b610e8e565b005b6102ae60048036036102a991908101906134e3565b610f04565b6040516102bb9190613e28565b60405180910390f35b6102de60048036036102d99190810190613597565b610f3b565b005b6102fa60048036036102f591908101906137fb565b61104b565b005b610316600480360361031191908101906135e6565b6114b0565b6040516103239190613e87565b60405180910390f35b610346600480360361034191908101906137a3565b611518565b6040516103539190614012565b60405180910390f35b6103766004803603610371919081019061392c565b6115ed565b005b610392600480360361038d91908101906134e3565b61167a565b60405161039f9190614012565b60405180910390f35b6103c260048036036103bd91908101906137a3565b61172f565b005b6103de60048036036103d99190810190613998565b6117a5565b005b6103fa60048036036103f59190810190613671565b61187b565b6040516104079190613f25565b60405180910390f35b61042a6004803603610425919081019061349e565b611980565b6040516104379190613e65565b60405180910390f35b61045a600480360361045591908101906134e3565b611ad6565b005b610476600480360361047191908101906134e3565b611b3d565b6040516104839190613f25565b60405180910390f35b6104a660048036036104a191908101906134e3565b611bf2565b6040516104b4929190613ebd565b60405180910390f35b6104d760048036036104d2919081019061350c565b611c2c565b005b6104f360048036036104ee91908101906137a3565b611c58565b6040516105009190613e43565b60405180910390f35b610523600480360361051e91908101906136fc565b612024565b005b61053f600480360361053a91908101906138f0565b612136565b60405161054c9190613f25565b60405180910390f35b61056f600480360361056a9190810190613548565b6121fd565b60405161057c9190613e87565b60405180910390f35b60006359d1d43c60e01b7bffffffffffffffffffffffffffffffffffffffffffffffffffffffff1916827bffffffffffffffffffffffffffffffffffffffffffffffffffffffff191614806105df57506105de82612239565b5b9050919050565b826105f08161229a565b6105f957600080fd5b600080905060008090506060806000610610612ff4565b61066860008a8a8080601f016020809104026020016040519081016040528093929190818152602001838380828437600081840152601f19601f8201169050808301925050505050505061242390919063ffffffff16565b90505b6106748161244d565b6107a15760008661ffff1614156106d0578060400151955061069581612463565b9350836040516020016106a89190613dad565b6040516020818303038152906040528051906020012091506106c98161249a565b9250610793565b60606106db82612463565b9050816040015161ffff168761ffff16141580610708575061070681866124ca90919063ffffffff16565b155b156107915761076a8b86898d8d8080601f016020809104026020016040519081016040528093929190818152602001838380828437600081840152601f19601f820116905080830192505050505050508a8b88602001510360008b51146124f1565b81604001519650816020015195508094508480519060200120925061078e8261249a565b93505b505b61079c81612821565b61066b565b50600083511115610809576108088984878b8b8080601f016020809104026020016040519081016040528093929190818152602001838380828437600081840152601f19601f8201169050808301925050505050505088898e8e90500360008951146124f1565b5b505050505050505050565b8461081e8161229a565b61082757600080fd5b8282600a6000898152602001908152602001600020878760405161084c929190613dc4565b9081526020016040518091039020919061086792919061303f565b508484604051610878929190613dc4565b6040518091039020867fd8c9334b1a9c2f9da342a0a2b32629c1a229b6445dad78947f674b44444a755087876040516108b2929190613fbc565b60405180910390a3505050505050565b600080600760008581526020019081526020016000206000847bffffffffffffffffffffffffffffffffffffffffffffffffffffffff19167bffffffffffffffffffffffffffffffffffffffffffffffffffffffff1916815260200190815260200160002060009054906101000a900473ffffffffffffffffffffffffffffffffffffffff169050600073ffffffffffffffffffffffffffffffffffffffff168173ffffffffffffffffffffffffffffffffffffffff16146109875780915050610ca7565b600061099285610f04565b9050600073ffffffffffffffffffffffffffffffffffffffff168173ffffffffffffffffffffffffffffffffffffffff1614156109d457600092505050610ca7565b600060608273ffffffffffffffffffffffffffffffffffffffff166301ffc9a760e01b604051602401610a079190613ee6565b6040516020818303038152906040527f01ffc9a7000000000000000000000000000000000000000000000000000000007bffffffffffffffffffffffffffffffffffffffffffffffffffffffff19166020820180517bffffffffffffffffffffffffffffffffffffffffffffffffffffffff8381831617835250505050604051610a919190613dad565b600060405180830381855afa9150503d8060008114610acc576040519150601f19603f3d011682016040523d82523d6000602084013e610ad1565b606091505b5091509150811580610ae4575060208151105b80610b2b5750600060f81b81601f81518110610afc57fe5b602001015160f81c60f81b7effffffffffffffffffffffffffffffffffffffffffffffffffffffffffffff1916145b15610b3d576000945050505050610ca7565b8273ffffffffffffffffffffffffffffffffffffffff1686604051602401610b659190613ee6565b6040516020818303038152906040527f01ffc9a7000000000000000000000000000000000000000000000000000000007bffffffffffffffffffffffffffffffffffffffffffffffffffffffff19166020820180517bffffffffffffffffffffffffffffffffffffffffffffffffffffffff8381831617835250505050604051610bef9190613dad565b600060405180830381855afa9150503d8060008114610c2a576040519150601f19603f3d011682016040523d82523d6000602084013e610c2f565b606091505b508092508193505050811580610c46575060208151105b80610c8d5750600060f81b81601f81518110610c5e57fe5b602001015160f81c60f81b7effffffffffffffffffffffffffffffffffffffffffffffffffffffffffffff1916145b15610c9f576000945050505050610ca7565b829450505050505b92915050565b60006060600080600086815260200190815260200160002090506000600190505b848111610dd957600085821614158015610d0e57506000826000838152602001908152602001600020805460018160011615610100020316600290049050115b15610dcd5780826000838152602001908152602001600020808054600181600116156101000203166002900480601f016020809104026020016040519081016040528092919081815260200182805460018160011615610100020316600290048015610dbb5780601f10610d9057610100808354040283529160200191610dbb565b820191906000526020600020905b815481529060010190602001808311610d9e57829003601f168201915b50505050509050935093505050610df5565b600181901b9050610cce565b5060006040518060200160405280600081525081915092509250505b9250929050565b82610e068161229a565b610e0f57600080fd5b604051806040016040528084815260200183815250600960008681526020019081526020016000206000820151816000015560208201518160010155905050837f1d6f5e03d3f63eb58751986629a5439baee5079ff04f345becb66e23eb154e468484604051610e80929190613ebd565b60405180910390a250505050565b82610e988161229a565b610ea157600080fd5b8282600260008781526020019081526020016000209190610ec39291906130bf565b50837fe379c1624ed7e714cc0937528a32359d69d5281337765313dba4e081b72d75788484604051610ef6929190613f01565b60405180910390a250505050565b60006060610f1383603c612136565b9050600081511415610f29576000915050610f36565b610f3281612935565b9150505b919050565b80600c600085815260200190815260200160002060003373ffffffffffffffffffffffffffffffffffffffff1673ffffffffffffffffffffffffffffffffffffffff16815260200190815260200160002060008473ffffffffffffffffffffffffffffffffffffffff1673ffffffffffffffffffffffffffffffffffffffff16815260200190815260200160002060006101000a81548160ff0219169083151502179055508173ffffffffffffffffffffffffffffffffffffffff163373ffffffffffffffffffffffffffffffffffffffff16847fe1c5610a6e0cbe10764ecd182adcef1ec338dc4e199c99c32ce98f38e12791df8460405161103e9190613e87565b60405180910390a4505050565b836110558161229a565b61105e57600080fd5b6008848490501461106e57600080fd5b6000600660008781526020019081526020016000208054905014156111a057600660008681526020019081526020016000206040518060600160405280600073ffffffffffffffffffffffffffffffffffffffff1681526020016000815260200160206040519080825280602002602001820160405280156110ff5781602001602082028038833980820191505090505b508152509080600181540180825580915050906001820390600052602060002090600302016000909192909190915060008201518160000160006101000a81548173ffffffffffffffffffffffffffffffffffffffff021916908373ffffffffffffffffffffffffffffffffffffffff16021790555060208201518160010155604082015181600201908051906020019061119b92919061313f565b505050505b600080905060008090505b858590508110156113f75760006111d68787848181106111c757fe5b9050013560f81c60f81b612958565b90506000600660008a815260200190815260200160002084815481106111f857fe5b90600052602060002090600302016002018260ff168154811061121757fe5b9060005260206000200154141561139f57600660008981526020019081526020016000206040518060600160405280600073ffffffffffffffffffffffffffffffffffffffff16815260200185815260200160206040519080825280602002602001820160405280156112995781602001602082028038833980820191505090505b508152509080600181540180825580915050906001820390600052602060002090600302016000909192909190915060008201518160000160006101000a81548173ffffffffffffffffffffffffffffffffffffffff021916908373ffffffffffffffffffffffffffffffffffffffff16021790555060208201518160010155604082015181600201908051906020019061133592919061313f565b505050506001600660008a81526020019081526020016000208054905003600660008a8152602001908152602001600020848154811061137157fe5b90600052602060002090600302016002018260ff168154811061139057fe5b90600052602060002001819055505b6006600089815260200190815260200160002083815481106113bd57fe5b90600052602060002090600302016002018160ff16815481106113dc57fe5b906000526020600020015492505080806001019150506111ab565b50600060066000888152602001908152602001600020828154811061141857fe5b90600052602060002090600302019050838160000160006101000a81548173ffffffffffffffffffffffffffffffffffffffff021916908373ffffffffffffffffffffffffffffffffffffffff160217905550867f5de2cda24e68fc2ced3f928b1b3fc7d51e68551e8dfdfb0687e0fc0a8c66c9b987878760405161149f93929190613fe0565b60405180910390a250505050505050565b60008060056000858152602001908152602001600020600060036000878152602001908152602001600020548152602001908152602001600020600084815260200190815260200160002060009054906101000a900461ffff1661ffff161415905092915050565b6060600a6000858152602001908152602001600020838360405161153d929190613dc4565b90815260200160405180910390208054600181600116156101000203166002900480601f0160208091040260200160405190810160405280929190818152602001828054600181600116156101000203166002900480156115df5780601f106115b4576101008083540402835291602001916115df565b820191906000526020600020905b8154815290600101906020018083116115c257829003601f168201915b505050505090509392505050565b836115f78161229a565b61160057600080fd5b60008460018603161461161257600080fd5b8282600080888152602001908152602001600020600087815260200190815260200160002091906116449291906130bf565b5083857faa121bbeef5f32f5961a2a28966e769023910fc9479059ee3495d4c1a696efe360405160405180910390a35050505050565b6060600860008381526020019081526020016000208054600181600116156101000203166002900480601f0160208091040260200160405190810160405280929190818152602001828054600181600116156101000203166002900480156117235780601f106116f857610100808354040283529160200191611723565b820191906000526020600020905b81548152906001019060200180831161170657829003601f168201915b50505050509050919050565b826117398161229a565b61174257600080fd5b828260086000878152602001908152602001600020919061176492919061303f565b50837fb7d29e911041e8d9b843369e890bcb72c9388692ba48b65ac54e7214c4c348f78484604051611797929190613fbc565b60405180910390a250505050565b826117af8161229a565b6117b857600080fd5b837f65412581168e88a1e60c6459d7f44ae83ad0832e670826c05a4e2476b57af75284846040516117ea929190614034565b60405180910390a2603c83141561183c57837f52d7d861f09ab3d26239d492e8968629f95e9e318cf0b73bfddc441522a15fd261182684612935565b6040516118339190613e0d565b60405180910390a25b81600160008681526020019081526020016000206000858152602001908152602001600020908051906020019061187492919061318c565b5050505050565b606060046000858152602001908152602001600020600060036000878152602001908152602001600020548152602001908152602001600020600084815260200190815260200160002060008361ffff1661ffff1681526020019081526020016000208054600181600116156101000203166002900480601f0160208091040260200160405190810160405280929190818152602001828054600181600116156101000203166002900480156119725780601f1061194757610100808354040283529160200191611972565b820191906000526020600020905b81548152906001019060200180831161195557829003601f168201915b505050505090509392505050565b6060828290506040519080825280602002602001820160405280156119b957816020015b60608152602001906001900390816119a45790505b50905060008090505b83839050811015611acc57600060603073ffffffffffffffffffffffffffffffffffffffff168686858181106119f457fe5b9050602002810180356001602003833603038112611a1157600080fd5b8083019250508135905060208201915067ffffffffffffffff811115611a3657600080fd5b600181023603821315611a4857600080fd5b604051611a56929190613d94565b600060405180830381855af49150503d8060008114611a91576040519150601f19603f3d011682016040523d82523d6000602084013e611a96565b606091505b509150915081611aa557600080fd5b80848481518110611ab257fe5b6020026020010181905250505080806001019150506119c2565b5080905092915050565b80611ae08161229a565b611ae957600080fd5b6003600083815260200190815260200160002060008154809291906001019190505550817fb757169b8492ca2f1c6619d9d76ce22803035c3b1d5f6930dffe7b127c1a198360405160405180910390a25050565b6060600260008381526020019081526020016000208054600181600116156101000203166002900480601f016020809104026020016040519081016040528092919081815260200182805460018160011615610100020316600290048015611be65780601f10611bbb57610100808354040283529160200191611be6565b820191906000526020600020905b815481529060010190602001808311611bc957829003601f168201915b50505050509050919050565b6000806009600084815260200190815260200160002060000154600960008581526020019081526020016000206001015491509150915091565b81611c368161229a565b611c3f57600080fd5b611c5383603c611c4e85612a86565b6117a5565b505050565b606060098383905010611c6a57600080fd5b60408051908082528060200260200182016040528015611c995781602001602082028038833980820191505090505b509050600060066000868152602001908152602001600020805490501415611cc35780905061201d565b6000809050600080905060008090505b85859050811015611d74576000611cfe878784818110611cef57fe5b9050013560f81c60f81b612958565b90506000600660008a81526020019081526020016000208481548110611d2057fe5b90600052602060002090600302016002018260ff1681548110611d3f57fe5b906000526020600020015490506000811415611d6257859550505050505061201d565b80935050508080600101915050611cd3565b50606060408051908082528060200260200182016040528015611da65781602001602082028038833980820191505090505b5090508181600081518110611db757fe5b60200260200101818152505060008090506000600190505b80821461201457611dde61320c565b600660008b8152602001908152602001600020848481518110611dfd57fe5b602002602001015181548110611e0f57fe5b90600052602060002090600302016040518060600160405290816000820160009054906101000a900473ffffffffffffffffffffffffffffffffffffffff1673ffffffffffffffffffffffffffffffffffffffff1673ffffffffffffffffffffffffffffffffffffffff1681526020016001820154815260200160028201805480602002602001604051908101604052809291908181526020018280548015611ed757602002820191906000526020600020905b815481526020019060010190808311611ec3575b50505050508152505090508280600101935050600073ffffffffffffffffffffffffffffffffffffffff16816000015173ffffffffffffffffffffffffffffffffffffffff161415611fab5760008090505b816040015151811015611fa557600082604001518281518110611f4857fe5b602002602001015114611f985760408310611f5f57fe5b81604001518181518110611f6f57fe5b6020026020010151858481518110611f8357fe5b60200260200101818152505082806001019350505b8080600101915050611f29565b5061200e565b8060000151878781518110611fbc57fe5b602002602001019073ffffffffffffffffffffffffffffffffffffffff16908173ffffffffffffffffffffffffffffffffffffffff16815250508580600101965050604086111561200d5750612014565b5b50611dcf565b85955050505050505b9392505050565b8261202e8161229a565b61203757600080fd5b81600760008681526020019081526020016000206000857bffffffffffffffffffffffffffffffffffffffffffffffffffffffff19167bffffffffffffffffffffffffffffffffffffffffffffffffffffffff1916815260200190815260200160002060006101000a81548173ffffffffffffffffffffffffffffffffffffffff021916908373ffffffffffffffffffffffffffffffffffffffff160217905550827bffffffffffffffffffffffffffffffffffffffffffffffffffffffff1916847f7c69f06bea0bdef565b709e93a147836b0063ba2dd89f02d0b7e8d931e6a6daa846040516121289190613df2565b60405180910390a350505050565b60606001600084815260200190815260200160002060008381526020019081526020016000208054600181600116156101000203166002900480601f0160208091040260200160405190810160405280929190818152602001828054600181600116156101000203166002900480156121f05780601f106121c5576101008083540402835291602001916121f0565b820191906000526020600020905b8154815290600101906020018083116121d357829003601f168201915b5050505050905092915050565b600c602052826000526040600020602052816000526040600020602052806000526040600020600092509250509054906101000a900460ff1681565b600063c869023360e01b7bffffffffffffffffffffffffffffffffffffffffffffffffffffffff1916827bffffffffffffffffffffffffffffffffffffffffffffffffffffffff19161480612293575061229282612ad1565b5b9050919050565b600080600b60009054906101000a900473ffffffffffffffffffffffffffffffffffffffff1673ffffffffffffffffffffffffffffffffffffffff166302571be3846040518263ffffffff1660e01b81526004016122f89190613ea2565b60206040518083038186803b15801561231057600080fd5b505afa158015612324573d6000803e3d6000fd5b505050506040513d601f19601f820116820180604052506123489190810190613475565b90503373ffffffffffffffffffffffffffffffffffffffff168173ffffffffffffffffffffffffffffffffffffffff16148061241b5750600c600084815260200190815260200160002060008273ffffffffffffffffffffffffffffffffffffffff1673ffffffffffffffffffffffffffffffffffffffff16815260200190815260200160002060003373ffffffffffffffffffffffffffffffffffffffff1673ffffffffffffffffffffffffffffffffffffffff16815260200190815260200160002060009054906101000a900460ff165b915050919050565b61242b612ff4565b828160000181905250818160c001818152505061244781612821565b92915050565b6000816000015151826020015110159050919050565b6060612493826020015161247f84600001518560200151612b32565b8460000151612b8d9092919063ffffffff16565b9050919050565b60606124c38260a001518360a001518460c00151038460000151612b8d9092919063ffffffff16565b9050919050565b6000815183511480156124e957506124e88360008460008751612c00565b5b905092915050565b600060036000898152602001908152602001600020549050600087805190602001209050606061252c868689612b8d9092919063ffffffff16565b905083156126a1576000600460008c81526020019081526020016000206000858152602001908152602001600020600084815260200190815260200160002060008a61ffff1661ffff1681526020019081526020016000208054600181600116156101000203166002900490501461260857600560008b815260200190815260200160002060008481526020019081526020016000206000838152602001908152602001600020600081819054906101000a900461ffff16809291906001900391906101000a81548161ffff021916908361ffff160217905550505b600460008b81526020019081526020016000206000848152602001908152602001600020600083815260200190815260200160002060008961ffff1661ffff16815260200190815260200160002060006126629190613243565b897f03528ed0c2a3ebc993b12ce3c16bb382f9c7d88ef7d8a1bf290eaf35955a12078a8a604051612694929190613f47565b60405180910390a2612815565b6000600460008c81526020019081526020016000206000858152602001908152602001600020600084815260200190815260200160002060008a61ffff1661ffff168152602001908152602001600020805460018160011615610100020316600290049050141561277557600560008b815260200190815260200160002060008481526020019081526020016000206000838152602001908152602001600020600081819054906101000a900461ffff168092919060010191906101000a81548161ffff021916908361ffff160217905550505b80600460008c81526020019081526020016000206000858152602001908152602001600020600084815260200190815260200160002060008a61ffff1661ffff16815260200190815260200160002090805190602001906127d792919061318c565b50897f52a608b3303a48862d07a73d82fa221318c0027fbbcfb1b2329bface3f19ff2b8a8a8460405161280c93929190613f77565b60405180910390a25b50505050505050505050565b8060c0015181602001818152505080600001515181602001511061284457612932565b600061285882600001518360200151612b32565b8260200151019050612877818360000151612c2490919063ffffffff16565b826040019061ffff16908161ffff16815250506002810190506128a7818360000151612c2490919063ffffffff16565b826060019061ffff16908161ffff16815250506002810190506128d7818360000151612c4a90919063ffffffff16565b826080019063ffffffff16908163ffffffff1681525050600481019050600061290d828460000151612c2490919063ffffffff16565b61ffff169050600282019150818360a00181815250508082018360c001818152505050505b50565b6000601482511461294557600080fd5b600c6101000a6020830151049050919050565b6000808260f81c9050603060ff168160ff161015801561297f5750603960ff168160ff1611155b806129a35750606160ff168160ff161180156129a25750607a60ff168160ff1611155b5b6129ac57600080fd5b606160ff168160ff1614156129c057600080fd5b606960ff168160ff1614156129d457600080fd5b606c60ff168160ff1614156129e857600080fd5b606f60ff168160ff1614156129fc57600080fd5b600960300160ff168160ff1611612a1857603081039150612a6d565b600a60628203019150606960ff168160ff161115612a3a578180600190039250505b606c60ff168160ff161115612a53578180600190039250505b606f60ff168160ff161115612a6c578180600190039250505b5b60208260ff1610612a7d57600080fd5b81915050919050565b606060146040519080825280601f01601f191660200182016040528015612abc5781602001600182028038833980820191505090505b509050600c6101000a82026020820152919050565b600063691f343160e01b7bffffffffffffffffffffffffffffffffffffffffffffffffffffffff1916827bffffffffffffffffffffffffffffffffffffffffffffffffffffffff19161480612b2b5750612b2a82612c72565b5b9050919050565b6000808290505b600115612b815783518110612b4a57fe5b6000612b5f8286612cdf90919063ffffffff16565b60ff16905060018101820191506000811415612b7b5750612b81565b50612b39565b82810391505092915050565b606083518284011115612b9f57600080fd5b6060826040519080825280601f01601f191660200182016040528015612bd45781602001600182028038833980820191505090505b5090506000806020830191508560208801019050612bf3828287612d03565b8293505050509392505050565b6000612c0d848484612d4c565b612c18878785612d4c565b14905095945050505050565b60008251600283011115612c3757600080fd5b61ffff8260028501015116905092915050565b60008251600483011115612c5d57600080fd5b63ffffffff8260048501015116905092915050565b6000604051612c8090613ddd565b60405180910390207bffffffffffffffffffffffffffffffffffffffffffffffffffffffff1916827bffffffffffffffffffffffffffffffffffffffffffffffffffffffff19161480612cd85750612cd782612d6f565b5b9050919050565b6000828281518110612ced57fe5b602001015160f81c60f81b60f81c905092915050565b5b60208110612d275781518352602083019250602082019150602081039050612d04565b60006001826020036101000a0390508019835116818551168181178652505050505050565b600083518284011115612d5e57600080fd5b818360208601012090509392505050565b600063a263115e60e01b7bffffffffffffffffffffffffffffffffffffffffffffffffffffffff1916827bffffffffffffffffffffffffffffffffffffffffffffffffffffffff19161480612dc95750612dc882612dd0565b5b9050919050565b600063a8fa568260e01b7bffffffffffffffffffffffffffffffffffffffffffffffffffffffff1916827bffffffffffffffffffffffffffffffffffffffffffffffffffffffff19161480612e2a5750612e2982612e31565b5b9050919050565b600063bc1c58d160e01b7bffffffffffffffffffffffffffffffffffffffffffffffffffffffff1916827bffffffffffffffffffffffffffffffffffffffffffffffffffffffff19161480612e8b5750612e8a82612e92565b5b9050919050565b6000633b3b57de60e01b7bffffffffffffffffffffffffffffffffffffffffffffffffffffffff1916827bffffffffffffffffffffffffffffffffffffffffffffffffffffffff19161480612f2b575063f1cb7e0660e01b7bffffffffffffffffffffffffffffffffffffffffffffffffffffffff1916827bffffffffffffffffffffffffffffffffffffffffffffffffffffffff1916145b80612f3b5750612f3a82612f42565b5b9050919050565b6000632203ab5660e01b7bffffffffffffffffffffffffffffffffffffffffffffffffffffffff1916827bffffffffffffffffffffffffffffffffffffffffffffffffffffffff19161480612f9c5750612f9b82612fa3565b5b9050919050565b60006301ffc9a760e01b7bffffffffffffffffffffffffffffffffffffffffffffffffffffffff1916827bffffffffffffffffffffffffffffffffffffffffffffffffffffffff1916149050919050565b6040518060e001604052806060815260200160008152602001600061ffff168152602001600061ffff168152602001600063ffffffff16815260200160008152602001600081525090565b828054600181600116156101000203166002900490600052602060002090601f016020900481019282601f1061308057803560ff19168380011785556130ae565b828001600101855582156130ae579182015b828111156130ad578235825591602001919060010190613092565b5b5090506130bb919061328b565b5090565b828054600181600116156101000203166002900490600052602060002090601f016020900481019282601f1061310057803560ff191683800117855561312e565b8280016001018555821561312e579182015b8281111561312d578235825591602001919060010190613112565b5b50905061313b919061328b565b5090565b82805482825590600052602060002090810192821561317b579160200282015b8281111561317a57825182559160200191906001019061315f565b5b509050613188919061328b565b5090565b828054600181600116156101000203166002900490600052602060002090601f016020900481019282601f106131cd57805160ff19168380011785556131fb565b828001600101855582156131fb579182015b828111156131fa5782518255916020019190600101906131df565b5b509050613208919061328b565b5090565b6040518060600160405280600073ffffffffffffffffffffffffffffffffffffffff16815260200160008152602001606081525090565b50805460018160011615610100020316600290046000825580601f106132695750613288565b601f016020900490600052602060002090810190613287919061328b565b5b50565b6132ad91905b808211156132a9576000816000905550600101613291565b5090565b90565b6000813590506132bf816142c0565b92915050565b6000815190506132d4816142c0565b92915050565b60008083601f8401126132ec57600080fd5b8235905067ffffffffffffffff81111561330557600080fd5b60208301915083602082028301111561331d57600080fd5b9250929050565b600081359050613333816142d7565b92915050565b600081359050613348816142ee565b92915050565b60008135905061335d81614305565b92915050565b60008083601f84011261337557600080fd5b8235905067ffffffffffffffff81111561338e57600080fd5b6020830191508360018202830111156133a657600080fd5b9250929050565b600082601f8301126133be57600080fd5b81356133d16133cc82614091565b614064565b915080825260208301602083018583830111156133ed57600080fd5b6133f883828461426d565b50505092915050565b60008083601f84011261341357600080fd5b8235905067ffffffffffffffff81111561342c57600080fd5b60208301915083600182028301111561344457600080fd5b9250929050565b60008135905061345a8161431c565b92915050565b60008135905061346f81614333565b92915050565b60006020828403121561348757600080fd5b6000613495848285016132c5565b91505092915050565b600080602083850312156134b157600080fd5b600083013567ffffffffffffffff8111156134cb57600080fd5b6134d7858286016132da565b92509250509250929050565b6000602082840312156134f557600080fd5b600061350384828501613339565b91505092915050565b6000806040838503121561351f57600080fd5b600061352d85828601613339565b925050602061353e858286016132b0565b9150509250929050565b60008060006060848603121561355d57600080fd5b600061356b86828701613339565b935050602061357c868287016132b0565b925050604061358d868287016132b0565b9150509250925092565b6000806000606084860312156135ac57600080fd5b60006135ba86828701613339565b93505060206135cb868287016132b0565b92505060406135dc86828701613324565b9150509250925092565b600080604083850312156135f957600080fd5b600061360785828601613339565b925050602061361885828601613339565b9150509250929050565b60008060006060848603121561363757600080fd5b600061364586828701613339565b935050602061365686828701613339565b925050604061366786828701613339565b9150509250925092565b60008060006060848603121561368657600080fd5b600061369486828701613339565b93505060206136a586828701613339565b92505060406136b68682870161344b565b9150509250925092565b600080604083850312156136d357600080fd5b60006136e185828601613339565b92505060206136f28582860161334e565b9150509250929050565b60008060006060848603121561371157600080fd5b600061371f86828701613339565b93505060206137308682870161334e565b9250506040613741868287016132b0565b9150509250925092565b60008060006040848603121561376057600080fd5b600061376e86828701613339565b935050602084013567ffffffffffffffff81111561378b57600080fd5b61379786828701613363565b92509250509250925092565b6000806000604084860312156137b857600080fd5b60006137c686828701613339565b935050602084013567ffffffffffffffff8111156137e357600080fd5b6137ef86828701613401565b92509250509250925092565b6000806000806060858703121561381157600080fd5b600061381f87828801613339565b945050602085013567ffffffffffffffff81111561383c57600080fd5b61384887828801613401565b9350935050604061385b878288016132b0565b91505092959194509250565b60008060008060006060868803121561387f57600080fd5b600061388d88828901613339565b955050602086013567ffffffffffffffff8111156138aa57600080fd5b6138b688828901613401565b9450945050604086013567ffffffffffffffff8111156138d557600080fd5b6138e188828901613401565b92509250509295509295909350565b6000806040838503121561390357600080fd5b600061391185828601613339565b925050602061392285828601613460565b9150509250929050565b6000806000806060858703121561394257600080fd5b600061395087828801613339565b945050602061396187828801613460565b935050604085013567ffffffffffffffff81111561397e57600080fd5b61398a87828801613363565b925092505092959194509250565b6000806000606084860312156139ad57600080fd5b60006139bb86828701613339565b93505060206139cc86828701613460565b925050604084013567ffffffffffffffff8111156139e957600080fd5b6139f5868287016133ad565b9150509250925092565b600060208284031215613a1157600080fd5b6000613a1f8482850161334e565b91505092915050565b6000613a348383613a72565b60208301905092915050565b6000613a4c8383613c4c565b905092915050565b613a5d81614237565b82525050565b613a6c816141ab565b82525050565b613a7b81614199565b82525050565b613a8a81614199565b82525050565b6000613a9b826140dd565b613aa5818561412e565b9350613ab0836140bd565b8060005b83811015613ae1578151613ac88882613a28565b9750613ad383614114565b925050600181019050613ab4565b5085935050505092915050565b6000613af9826140e8565b613b03818561413f565b935083602082028501613b15856140cd565b8060005b85811015613b515784840389528151613b328582613a40565b9450613b3d83614121565b925060208a01995050600181019050613b19565b50829750879550505050505092915050565b613b6c816141bd565b82525050565b613b7b816141c9565b82525050565b613b8a816141d3565b82525050565b6000613b9c8385614161565b9350613ba983858461426d565b613bb2836142af565b840190509392505050565b6000613bc98385614172565b9350613bd683858461426d565b82840190509392505050565b6000613bed826140fe565b613bf78185614161565b9350613c0781856020860161427c565b613c10816142af565b840191505092915050565b6000613c26826140fe565b613c308185614172565b9350613c4081856020860161427c565b80840191505092915050565b6000613c57826140f3565b613c618185614150565b9350613c7181856020860161427c565b613c7a816142af565b840191505092915050565b6000613c91838561417d565b9350613c9e83858461426d565b613ca7836142af565b840190509392505050565b6000613cbe838561418e565b9350613ccb83858461426d565b82840190509392505050565b6000613ce282614109565b613cec818561417d565b9350613cfc81856020860161427c565b613d05816142af565b840191505092915050565b6000613d1d60248361418e565b91507f696e74657266616365496d706c656d656e74657228627974657333322c62797460008301527f65733429000000000000000000000000000000000000000000000000000000006020830152602482019050919050565b613d7f816141ff565b82525050565b613d8e8161422d565b82525050565b6000613da1828486613bbd565b91508190509392505050565b6000613db98284613c1b565b915081905092915050565b6000613dd1828486613cb2565b91508190509392505050565b6000613de882613d10565b9150819050919050565b6000602082019050613e076000830184613a81565b92915050565b6000602082019050613e226000830184613a54565b92915050565b6000602082019050613e3d6000830184613a63565b92915050565b60006020820190508181036000830152613e5d8184613a90565b905092915050565b60006020820190508181036000830152613e7f8184613aee565b905092915050565b6000602082019050613e9c6000830184613b63565b92915050565b6000602082019050613eb76000830184613b72565b92915050565b6000604082019050613ed26000830185613b72565b613edf6020830184613b72565b9392505050565b6000602082019050613efb6000830184613b81565b92915050565b60006020820190508181036000830152613f1c818486613b90565b90509392505050565b60006020820190508181036000830152613f3f8184613be2565b905092915050565b60006040820190508181036000830152613f618185613be2565b9050613f706020830184613d76565b9392505050565b60006060820190508181036000830152613f918186613be2565b9050613fa06020830185613d76565b8181036040830152613fb28184613be2565b9050949350505050565b60006020820190508181036000830152613fd7818486613c85565b90509392505050565b60006040820190508181036000830152613ffb818587613c85565b905061400a6020830184613a81565b949350505050565b6000602082019050818103600083015261402c8184613cd7565b905092915050565b60006040820190506140496000830185613d85565b818103602083015261405b8184613be2565b90509392505050565b6000604051905081810181811067ffffffffffffffff8211171561408757600080fd5b8060405250919050565b600067ffffffffffffffff8211156140a857600080fd5b601f19601f8301169050602081019050919050565b6000819050602082019050919050565b6000819050602082019050919050565b600081519050919050565b600081519050919050565b600081519050919050565b600081519050919050565b600081519050919050565b6000602082019050919050565b6000602082019050919050565b600082825260208201905092915050565b600082825260208201905092915050565b600082825260208201905092915050565b600082825260208201905092915050565b600081905092915050565b600082825260208201905092915050565b600081905092915050565b60006141a48261420d565b9050919050565b60006141b68261420d565b9050919050565b60008115159050919050565b6000819050919050565b60007fffffffff0000000000000000000000000000000000000000000000000000000082169050919050565b600061ffff82169050919050565b600073ffffffffffffffffffffffffffffffffffffffff82169050919050565b6000819050919050565b600061424282614249565b9050919050565b60006142548261425b565b9050919050565b60006142668261420d565b9050919050565b82818337600083830152505050565b60005b8381101561429a57808201518184015260208101905061427f565b838111156142a9576000848401525b50505050565b6000601f19601f8301169050919050565b6142c981614199565b81146142d457600080fd5b50565b6142e0816141bd565b81146142eb57600080fd5b50565b6142f7816141c9565b811461430257600080fd5b50565b61430e816141d3565b811461431957600080fd5b50565b614325816141ff565b811461433057600080fd5b50565b61433c8161422d565b811461434757600080fd5b5056fea365627a7a7231582024d99d10eb3ea4ce7b1c4a283085d66a9e596488e4db81cad83a7616700bbe326c6578706572696d656e74616cf564736f6c63430005100040",
  "source": "pragma solidity ^0.5.0;\npragma experimental ABIEncoderV2;\n\nimport \"@ensdomains/ens/contracts/ENS.sol\";\nimport \"./profiles/ABIResolver.sol\";\nimport \"./profiles/AddrResolver.sol\";\nimport \"./profiles/ContentHashResolver.sol\";\nimport \"./profiles/DNSResolver.sol\";\nimport \"./profiles/GeoENSResolver.sol\";\nimport \"./profiles/InterfaceResolver.sol\";\nimport \"./profiles/NameResolver.sol\";\nimport \"./profiles/PubkeyResolver.sol\";\nimport \"./profiles/TextResolver.sol\";\n\n/**\n * A simple resolver anyone can use; only allows the owner of a node to set its\n * address.\n */\ncontract PublicResolver is ABIResolver, AddrResolver, ContentHashResolver, DNSResolver, GeoENSResolver, InterfaceResolver, NameResolver, PubkeyResolver, TextResolver {\n    ENS ens;\n\n    /**\n     * A mapping of authorisations. An address that is authorised for a name\n     * may make any changes to the name that the owner could, but may not update\n     * the set of authorisations.\n     * (node, owner, caller) => isAuthorised\n     */\n    mapping(bytes32=>mapping(address=>mapping(address=>bool))) public authorisations;\n\n    event AuthorisationChanged(bytes32 indexed node, address indexed owner, address indexed target, bool isAuthorised);\n\n    constructor(ENS _ens) public {\n        ens = _ens;\n    }\n\n    /**\n     * @dev Sets or clears an authorisation.\n     * Authorisations are specific to the caller. Any account can set an authorisation\n     * for any name, but the authorisation that is checked will be that of the\n     * current owner of a name. Thus, transferring a name effectively clears any\n     * existing authorisations, and new authorisations can be set in advance of\n     * an ownership transfer if desired.\n     *\n     * @param node The name to change the authorisation on.\n     * @param target The address that is to be authorised or deauthorised.\n     * @param isAuthorised True if the address should be authorised, or false if it should be deauthorised.\n     */\n    function setAuthorisation(bytes32 node, address target, bool isAuthorised) external {\n        authorisations[node][msg.sender][target] = isAuthorised;\n        emit AuthorisationChanged(node, msg.sender, target, isAuthorised);\n    }\n\n    function isAuthorised(bytes32 node) internal view returns(bool) {\n        address owner = ens.owner(node);\n        return owner == msg.sender || authorisations[node][owner][msg.sender];\n    }\n\n    function multicall(bytes[] calldata data) external returns(bytes[] memory results) {\n        results = new bytes[](data.length);\n        for(uint i = 0; i < data.length; i++) {\n            (bool success, bytes memory result) = address(this).delegatecall(data[i]);\n            require(success);\n            results[i] = result;\n        }\n        return results;\n    }\n}\n",
  "sourcePath": "/home/jim/geoens/resolvers/contracts/PublicResolver.sol",
  "compiler": {
    "name": "solc",
    "version": "0.5.16+commit.9c3226ce.Emscripten.clang"
  },
  "schemaVersion": "3.0.23",
  "updatedAt": "2020-05-06T01:02:40.409Z",
  "networkType": "ethereum",
  "devdoc": {
    "methods": {
      "ABI(bytes32,uint256)": {
        "params": {
          "contentTypes": "A bitwise OR of the ABI formats accepted by the caller.",
          "node": "The ENS node to query"
        },
        "return": "contentType The content type of the return valuedata The ABI data"
      },
      "addr(bytes32)": {
        "params": {
          "node": "The ENS node to query."
        },
        "return": "The associated address."
      },
      "clearDNSZone(bytes32)": {
        "params": {
          "node": "the namehash of the node for which to clear the zone"
        }
      },
      "contenthash(bytes32)": {
        "params": {
          "node": "The ENS node to query."
        },
        "return": "The associated contenthash."
      },
      "dnsRecord(bytes32,bytes32,uint16)": {
        "params": {
          "name": "the keccak-256 hash of the fully-qualified name for which to fetch the record",
          "node": "the namehash of the node for which to fetch the record",
          "resource": "the ID of the resource as per https://en.wikipedia.org/wiki/List_of_DNS_record_types"
        },
        "return": "the DNS record in wire format if present, otherwise empty"
      },
      "hasDNSRecords(bytes32,bytes32)": {
        "params": {
          "name": "the namehash of the node for which to check the records",
          "node": "the namehash of the node for which to check the records"
        }
      },
      "interfaceImplementer(bytes32,bytes4)": {
        "params": {
          "interfaceID": "The EIP 168 interface ID to check for.",
          "node": "The ENS node to query."
        },
        "return": "The address that implements this interface, or 0 if the interface is unsupported."
      },
      "name(bytes32)": {
        "params": {
          "node": "The ENS node to query."
        },
        "return": "The associated name."
      },
      "pubkey(bytes32)": {
        "params": {
          "node": "The ENS node to query"
        },
        "return": "x, y the X and Y coordinates of the curve point for the public key."
      },
      "setABI(bytes32,uint256,bytes)": {
        "params": {
          "contentType": "The content type of the ABI",
          "data": "The ABI data.",
          "node": "The node to update."
        }
      },
      "setAddr(bytes32,address)": {
        "params": {
          "a": "The address to set.",
          "node": "The node to update."
        }
      },
      "setAuthorisation(bytes32,address,bool)": {
        "details": "Sets or clears an authorisation. Authorisations are specific to the caller. Any account can set an authorisation for any name, but the authorisation that is checked will be that of the current owner of a name. Thus, transferring a name effectively clears any existing authorisations, and new authorisations can be set in advance of an ownership transfer if desired.",
        "params": {
          "isAuthorised": "True if the address should be authorised, or false if it should be deauthorised.",
          "node": "The name to change the authorisation on.",
          "target": "The address that is to be authorised or deauthorised."
        }
      },
      "setContenthash(bytes32,bytes)": {
        "params": {
          "hash": "The contenthash to set",
          "node": "The node to update."
        }
      },
      "setDNSRecords(bytes32,bytes)": {
        "params": {
          "data": "the DNS wire format records to set",
          "node": "the namehash of the node for which to set the records"
        }
      },
      "setInterface(bytes32,bytes4,address)": {
        "params": {
          "implementer": "The address of a contract that implements this interface for this node.",
          "interfaceID": "The EIP 168 interface ID.",
          "node": "The node to update."
        }
      },
      "setName(bytes32,string)": {
        "params": {
          "name": "The name to set.",
          "node": "The node to update."
        }
      },
      "setPubkey(bytes32,bytes32,bytes32)": {
        "params": {
          "node": "The ENS node to query",
          "x": "the X coordinate of the curve point for the public key.",
          "y": "the Y coordinate of the curve point for the public key."
        }
      },
      "setText(bytes32,string,string)": {
        "params": {
          "key": "The key to set.",
          "node": "The node to update.",
          "value": "The text data value to set."
        }
      },
      "text(bytes32,string)": {
        "params": {
          "key": "The text data key to query.",
          "node": "The ENS node to query."
        },
        "return": "The associated text data."
      }
    }
  },
  "userdoc": {
    "methods": {
      "ABI(bytes32,uint256)": {
        "notice": "Returns the ABI associated with an ENS node. Defined in EIP205."
      },
      "addr(bytes32)": {
        "notice": "Returns the address associated with an ENS node."
      },
      "clearDNSZone(bytes32)": {
        "notice": "Clear all information for a DNS zone."
      },
      "contenthash(bytes32)": {
        "notice": "Returns the contenthash associated with an ENS node."
      },
      "dnsRecord(bytes32,bytes32,uint16)": {
        "notice": "Obtain a DNS record."
      },
      "hasDNSRecords(bytes32,bytes32)": {
        "notice": "Check if a given node has records."
      },
      "interfaceImplementer(bytes32,bytes4)": {
        "notice": "Returns the address of a contract that implements the specified interface for this name. If an implementer has not been set for this interfaceID and name, the resolver will query the contract at `addr()`. If `addr()` is set, a contract exists at that address, and that contract implements EIP168 and returns `true` for the specified interfaceID, its address will be returned."
      },
      "name(bytes32)": {
        "notice": "Returns the name associated with an ENS node, for reverse records. Defined in EIP181."
      },
      "pubkey(bytes32)": {
        "notice": "Returns the SECP256k1 public key associated with an ENS node. Defined in EIP 619."
      },
      "setABI(bytes32,uint256,bytes)": {
        "notice": "Sets the ABI associated with an ENS node. Nodes may have one ABI of each content type. To remove an ABI, set it to the empty string."
      },
      "setAddr(bytes32,address)": {
        "notice": "Sets the address associated with an ENS node. May only be called by the owner of that node in the ENS registry."
      },
      "setContenthash(bytes32,bytes)": {
        "notice": "Sets the contenthash associated with an ENS node. May only be called by the owner of that node in the ENS registry."
      },
      "setDNSRecords(bytes32,bytes)": {
        "notice": "Set one or more DNS records.  Records are supplied in wire-format. Records with the same node/name/resource must be supplied one after the other to ensure the data is updated correctly. For example, if the data was supplied:    a.example.com IN A 1.2.3.4    a.example.com IN A 5.6.7.8    www.example.com IN CNAME a.example.com. then this would store the two A records for a.example.com correctly as a single RRSET, however if the data was supplied:    a.example.com IN A 1.2.3.4    www.example.com IN CNAME a.example.com.    a.example.com IN A 5.6.7.8 then this would store the first A record, the CNAME, then the second A record which would overwrite the first."
      },
      "setInterface(bytes32,bytes4,address)": {
        "notice": "Sets an interface associated with a name. Setting the address to 0 restores the default behaviour of querying the contract at `addr()` for interface support."
      },
      "setName(bytes32,string)": {
        "notice": "Sets the name associated with an ENS node, for reverse records. May only be called by the owner of that node in the ENS registry."
      },
      "setPubkey(bytes32,bytes32,bytes32)": {
        "notice": "Sets the SECP256k1 public key associated with an ENS node."
      },
      "setText(bytes32,string,string)": {
        "notice": "Sets the text data associated with an ENS node and key. May only be called by the owner of that node in the ENS registry."
      },
      "text(bytes32,string)": {
        "notice": "Returns the text data associated with an ENS node and key."
      }
    },
    "notice": "A simple resolver anyone can use; only allows the owner of a node to set its address."
  }
}